{
  "contractName": "Trader",
  "abi": [
    {
      "inputs": [],
      "stateMutability": "nonpayable",
      "type": "constructor"
    },
    {
      "inputs": [],
      "name": "_uniswapRouter",
      "outputs": [
        {
          "internalType": "contract IUniswapV2Router02",
          "name": "",
          "type": "address"
        }
      ],
      "stateMutability": "view",
      "type": "function"
    },
    {
      "stateMutability": "payable",
      "type": "receive"
    },
    {
      "inputs": [
        {
          "internalType": "address",
          "name": "to",
          "type": "address"
        },
        {
          "internalType": "address",
          "name": "tokenAddress",
          "type": "address"
        },
        {
          "internalType": "uint256",
          "name": "tokenAmount",
          "type": "uint256"
        }
      ],
      "name": "buy",
      "outputs": [],
      "stateMutability": "payable",
      "type": "function"
    },
    {
      "inputs": [
        {
          "internalType": "address",
          "name": "to",
          "type": "address"
        },
        {
          "internalType": "address",
          "name": "tokenAddress",
          "type": "address"
        },
        {
          "internalType": "uint256",
          "name": "tokenAmount",
          "type": "uint256"
        },
        {
          "internalType": "uint256",
          "name": "etherAmount",
          "type": "uint256"
        }
      ],
      "name": "sell",
      "outputs": [],
      "stateMutability": "payable",
      "type": "function"
    },
    {
      "inputs": [
        {
          "internalType": "address",
          "name": "tokenAddress",
          "type": "address"
        },
        {
          "internalType": "uint256",
          "name": "tokenAmount",
          "type": "uint256"
        }
      ],
      "name": "getEstimatedETHforTK",
      "outputs": [
        {
          "internalType": "uint256[]",
          "name": "",
          "type": "uint256[]"
        }
      ],
      "stateMutability": "view",
      "type": "function"
    },
    {
      "inputs": [
        {
          "internalType": "address",
          "name": "tokenAddress",
          "type": "address"
        },
        {
          "internalType": "uint256",
          "name": "etherAmount",
          "type": "uint256"
        }
      ],
      "name": "getEstimatedTKforETH",
      "outputs": [
        {
          "internalType": "uint256[]",
          "name": "",
          "type": "uint256[]"
        }
      ],
      "stateMutability": "view",
      "type": "function"
    }
  ],
  "bytecode": "0x608060405234801561001057600080fd5b50737a250d5630b4cf539739df2c5dacb4c659f2488d6000806101000a81548173ffffffffffffffffffffffffffffffffffffffff021916908373ffffffffffffffffffffffffffffffffffffffff160217905550610ea8806100746000396000f3fe60806040526004361061004e5760003560e01c8063153e66e61461005a57806331de7d15146100c857806365b61b7714610140578063ab79facc14610197578063d3feb9391461024757610055565b3661005557005b600080fd5b6100c66004803603606081101561007057600080fd5b81019080803573ffffffffffffffffffffffffffffffffffffffff169060200190929190803573ffffffffffffffffffffffffffffffffffffffff169060200190929190803590602001909291905050506102f7565b005b61013e600480360360808110156100de57600080fd5b81019080803573ffffffffffffffffffffffffffffffffffffffff169060200190929190803573ffffffffffffffffffffffffffffffffffffffff1690602001909291908035906020019092919080359060200190929190505050610558565b005b34801561014c57600080fd5b506101556107c1565b604051808273ffffffffffffffffffffffffffffffffffffffff1673ffffffffffffffffffffffffffffffffffffffff16815260200191505060405180910390f35b3480156101a357600080fd5b506101f0600480360360408110156101ba57600080fd5b81019080803573ffffffffffffffffffffffffffffffffffffffff169060200190929190803590602001909291905050506107e6565b6040518080602001828103825283818151815260200191508051906020019060200280838360005b83811015610233578082015181840152602081019050610218565b505050509050019250505060405180910390f35b34801561025357600080fd5b506102a06004803603604081101561026a57600080fd5b81019080803573ffffffffffffffffffffffffffffffffffffffff16906020019092919080359060200190929190505050610988565b6040518080602001828103825283818151815260200191508051906020019060200280838360005b838110156102e35780820151818401526020810190506102c8565b505050509050019250505060405180910390f35b6000600f42019050600061030b84346107e6565b60008151811061031757fe5b60200260200101519050828110610379576040517f08c379a0000000000000000000000000000000000000000000000000000000008152600401808060200182810382526034815260200180610e3f6034913960400191505060405180910390fd5b6000809054906101000a900473ffffffffffffffffffffffffffffffffffffffff1673ffffffffffffffffffffffffffffffffffffffff1663fb3bdb4134856103c188610b2a565b89876040518663ffffffff1660e01b815260040180858152602001806020018473ffffffffffffffffffffffffffffffffffffffff1673ffffffffffffffffffffffffffffffffffffffff168152602001838152602001828103825285818151815260200191508051906020019060200280838360005b83811015610453578082015181840152602081019050610438565b50505050905001955050505050506000604051808303818588803b15801561047a57600080fd5b505af115801561048e573d6000803e3d6000fd5b50505050506040513d6000823e3d601f19601f8201168201806040525060208110156104b957600080fd5b81019080805160405193929190846401000000008211156104d957600080fd5b838201915060208201858111156104ef57600080fd5b825186602082028301116401000000008211171561050c57600080fd5b8083526020830192505050908051906020019060200280838360005b83811015610543578082015181840152602081019050610528565b50505050905001604052505050505050505050565b6000600f42019050600061056c8585610988565b60008151811061057857fe5b602002602001015190508281106105da576040517f08c379a0000000000000000000000000000000000000000000000000000000008152600401808060200182810382526034815260200180610e0b6034913960400191505060405180910390fd5b6000809054906101000a900473ffffffffffffffffffffffffffffffffffffffff1673ffffffffffffffffffffffffffffffffffffffff16634a25d94a858561062289610c9a565b8a876040518663ffffffff1660e01b815260040180868152602001858152602001806020018473ffffffffffffffffffffffffffffffffffffffff1673ffffffffffffffffffffffffffffffffffffffff168152602001838152602001828103825285818151815260200191508051906020019060200280838360005b838110156106ba57808201518184015260208101905061069f565b505050509050019650505050505050600060405180830381600087803b1580156106e357600080fd5b505af11580156106f7573d6000803e3d6000fd5b505050506040513d6000823e3d601f19601f82011682018060405250602081101561072157600080fd5b810190808051604051939291908464010000000082111561074157600080fd5b8382019150602082018581111561075757600080fd5b825186602082028301116401000000008211171561077457600080fd5b8083526020830192505050908051906020019060200280838360005b838110156107ab578082015181840152602081019050610790565b5050505090500160405250505050505050505050565b6000809054906101000a900473ffffffffffffffffffffffffffffffffffffffff1681565b60606000809054906101000a900473ffffffffffffffffffffffffffffffffffffffff1673ffffffffffffffffffffffffffffffffffffffff16631f00ca748361082f86610c9a565b6040518363ffffffff1660e01b81526004018083815260200180602001828103825283818151815260200191508051906020019060200280838360005b8381101561088757808201518184015260208101905061086c565b50505050905001935050505060006040518083038186803b1580156108ab57600080fd5b505afa1580156108bf573d6000803e3d6000fd5b505050506040513d6000823e3d601f19601f8201168201806040525060208110156108e957600080fd5b810190808051604051939291908464010000000082111561090957600080fd5b8382019150602082018581111561091f57600080fd5b825186602082028301116401000000008211171561093c57600080fd5b8083526020830192505050908051906020019060200280838360005b83811015610973578082015181840152602081019050610958565b50505050905001604052505050905092915050565b60606000809054906101000a900473ffffffffffffffffffffffffffffffffffffffff1673ffffffffffffffffffffffffffffffffffffffff16631f00ca74836109d186610b2a565b6040518363ffffffff1660e01b81526004018083815260200180602001828103825283818151815260200191508051906020019060200280838360005b83811015610a29578082015181840152602081019050610a0e565b50505050905001935050505060006040518083038186803b158015610a4d57600080fd5b505afa158015610a61573d6000803e3d6000fd5b505050506040513d6000823e3d601f19601f820116820180604052506020811015610a8b57600080fd5b8101908080516040519392919084640100000000821115610aab57600080fd5b83820191506020820185811115610ac157600080fd5b8251866020820283011164010000000082111715610ade57600080fd5b8083526020830192505050908051906020019060200280838360005b83811015610b15578082015181840152602081019050610afa565b50505050905001604052505050905092915050565b6060806002604051908082528060200260200182016040528015610b5d5781602001602082028038833980820191505090505b5090506000809054906101000a900473ffffffffffffffffffffffffffffffffffffffff1673ffffffffffffffffffffffffffffffffffffffff1663ad5c46486040518163ffffffff1660e01b815260040160206040518083038186803b158015610bc757600080fd5b505afa158015610bdb573d6000803e3d6000fd5b505050506040513d6020811015610bf157600080fd5b810190808051906020019092919050505081600081518110610c0f57fe5b602002602001019073ffffffffffffffffffffffffffffffffffffffff16908173ffffffffffffffffffffffffffffffffffffffff16815250508281600181518110610c5757fe5b602002602001019073ffffffffffffffffffffffffffffffffffffffff16908173ffffffffffffffffffffffffffffffffffffffff168152505080915050919050565b6060806002604051908082528060200260200182016040528015610ccd5781602001602082028038833980820191505090505b5090508281600081518110610cde57fe5b602002602001019073ffffffffffffffffffffffffffffffffffffffff16908173ffffffffffffffffffffffffffffffffffffffff16815250506000809054906101000a900473ffffffffffffffffffffffffffffffffffffffff1673ffffffffffffffffffffffffffffffffffffffff1663ad5c46486040518163ffffffff1660e01b815260040160206040518083038186803b158015610d7f57600080fd5b505afa158015610d93573d6000803e3d6000fd5b505050506040513d6020811015610da957600080fd5b810190808051906020019092919050505081600181518110610dc757fe5b602002602001019073ffffffffffffffffffffffffffffffffffffffff16908173ffffffffffffffffffffffffffffffffffffffff16815250508091505091905056fe5472616e73616374696f6e2072657665727465643a20496e73756666696369656e7420546f6b656e7320746f20676574204554485472616e73616374696f6e2072657665727465643a20496e73756666696369656e742045544820746f2067657420546f6b656e73a2646970667358221220e819c90649c5a1bbe8e1e7f0a9593396d755006d6f799f8a255281512bd93e7064736f6c63430006020033",
  "source": "// SPDX-License-Identifier: MIT\r\npragma solidity >=0.6.2;\r\n\r\ninterface IUniswapV2Router01 {\r\n    function factory() external pure returns (address);\r\n    function WETH() external pure returns (address);\r\n\r\n    function addLiquidity(\r\n        address tokenA,\r\n        address tokenB,\r\n        uint amountADesired,\r\n        uint amountBDesired,\r\n        uint amountAMin,\r\n        uint amountBMin,\r\n        address to,\r\n        uint deadline\r\n    ) external returns (uint amountA, uint amountB, uint liquidity);\r\n    function addLiquidityETH(\r\n        address token,\r\n        uint amountTokenDesired,\r\n        uint amountTokenMin,\r\n        uint amountETHMin,\r\n        address to,\r\n        uint deadline\r\n    ) external payable returns (uint amountToken, uint amountETH, uint liquidity);\r\n    function removeLiquidity(\r\n        address tokenA,\r\n        address tokenB,\r\n        uint liquidity,\r\n        uint amountAMin,\r\n        uint amountBMin,\r\n        address to,\r\n        uint deadline\r\n    ) external returns (uint amountA, uint amountB);\r\n    function removeLiquidityETH(\r\n        address token,\r\n        uint liquidity,\r\n        uint amountTokenMin,\r\n        uint amountETHMin,\r\n        address to,\r\n        uint deadline\r\n    ) external returns (uint amountToken, uint amountETH);\r\n    function removeLiquidityWithPermit(\r\n        address tokenA,\r\n        address tokenB,\r\n        uint liquidity,\r\n        uint amountAMin,\r\n        uint amountBMin,\r\n        address to,\r\n        uint deadline,\r\n        bool approveMax, uint8 v, bytes32 r, bytes32 s\r\n    ) external returns (uint amountA, uint amountB);\r\n    function removeLiquidityETHWithPermit(\r\n        address token,\r\n        uint liquidity,\r\n        uint amountTokenMin,\r\n        uint amountETHMin,\r\n        address to,\r\n        uint deadline,\r\n        bool approveMax, uint8 v, bytes32 r, bytes32 s\r\n    ) external returns (uint amountToken, uint amountETH);\r\n    function swapExactTokensForTokens(\r\n        uint amountIn,\r\n        uint amountOutMin,\r\n        address[] calldata path,\r\n        address to,\r\n        uint deadline\r\n    ) external returns (uint[] memory amounts);\r\n    function swapTokensForExactTokens(\r\n        uint amountOut,\r\n        uint amountInMax,\r\n        address[] calldata path,\r\n        address to,\r\n        uint deadline\r\n    ) external returns (uint[] memory amounts);\r\n    function swapExactETHForTokens(uint amountOutMin, address[] calldata path, address to, uint deadline)\r\n        external\r\n        payable\r\n        returns (uint[] memory amounts);\r\n    function swapTokensForExactETH(uint amountOut, uint amountInMax, address[] calldata path, address to, uint deadline)\r\n        external\r\n        returns (uint[] memory amounts);\r\n    function swapExactTokensForETH(uint amountIn, uint amountOutMin, address[] calldata path, address to, uint deadline)\r\n        external\r\n        returns (uint[] memory amounts);\r\n    function swapETHForExactTokens(uint amountOut, address[] calldata path, address to, uint deadline)\r\n        external\r\n        payable\r\n        returns (uint[] memory amounts);\r\n\r\n    function quote(uint amountA, uint reserveA, uint reserveB) external pure returns (uint amountB);\r\n    function getAmountOut(uint amountIn, uint reserveIn, uint reserveOut) external pure returns (uint amountOut);\r\n    function getAmountIn(uint amountOut, uint reserveIn, uint reserveOut) external pure returns (uint amountIn);\r\n    function getAmountsOut(uint amountIn, address[] calldata path) external view returns (uint[] memory amounts);\r\n    function getAmountsIn(uint amountOut, address[] calldata path) external view returns (uint[] memory amounts);\r\n}\r\n\r\n// File: https://github.com/Uniswap/uniswap-v2-periphery/blob/master/contracts/interfaces/IUniswapV2Router02.sol\r\n\r\npragma solidity >=0.6.2;\r\n\r\n\r\ninterface IUniswapV2Router02 is IUniswapV2Router01 {\r\n    function removeLiquidityETHSupportingFeeOnTransferTokens(\r\n        address token,\r\n        uint liquidity,\r\n        uint amountTokenMin,\r\n        uint amountETHMin,\r\n        address to,\r\n        uint deadline\r\n    ) external returns (uint amountETH);\r\n    function removeLiquidityETHWithPermitSupportingFeeOnTransferTokens(\r\n        address token,\r\n        uint liquidity,\r\n        uint amountTokenMin,\r\n        uint amountETHMin,\r\n        address to,\r\n        uint deadline,\r\n        bool approveMax, uint8 v, bytes32 r, bytes32 s\r\n    ) external returns (uint amountETH);\r\n\r\n    function swapExactTokensForTokensSupportingFeeOnTransferTokens(\r\n        uint amountIn,\r\n        uint amountOutMin,\r\n        address[] calldata path,\r\n        address to,\r\n        uint deadline\r\n    ) external;\r\n    function swapExactETHForTokensSupportingFeeOnTransferTokens(\r\n        uint amountOutMin,\r\n        address[] calldata path,\r\n        address to,\r\n        uint deadline\r\n    ) external payable;\r\n    function swapExactTokensForETHSupportingFeeOnTransferTokens(\r\n        uint amountIn,\r\n        uint amountOutMin,\r\n        address[] calldata path,\r\n        address to,\r\n        uint deadline\r\n    ) external;\r\n}\r\n\r\n// File: contracts/TestTrader.sol\r\n\r\npragma solidity ^0.6.2;\r\n\r\n\r\ncontract Trader {\r\n  address internal constant UNISWAP_ROUTER_ADDRESS = 0x7a250d5630B4cF539739dF2C5dAcb4c659F2488D ;\r\n\r\n  IUniswapV2Router02 public _uniswapRouter;\r\n\r\n  constructor() public {\r\n    _uniswapRouter = IUniswapV2Router02(UNISWAP_ROUTER_ADDRESS);\r\n  }\r\n\r\n  function buy(address to, address tokenAddress, uint tokenAmount) public payable {\r\n    uint deadline = block.timestamp + 15; // using 'now' for convenience, for mainnet pass deadline from frontend!\r\n    uint estimatedAmount = getEstimatedTKforETH(tokenAddress, msg.value)[0];\r\n    require(estimatedAmount < tokenAmount, \"Transaction reverted: Insufficient ETH to get Tokens\");\r\n    _uniswapRouter.swapETHForExactTokens{ value: msg.value }(tokenAmount, getPathForETHtoTK(tokenAddress), to, deadline);\r\n  }\r\n  \r\n  function sell(address to, address tokenAddress, uint tokenAmount, uint etherAmount) public payable {\r\n    uint deadline = block.timestamp + 15; // using 'now' for convenience, for mainnet pass deadline from frontend!\r\n    uint estimatedAmount = getEstimatedETHforTK(tokenAddress, tokenAmount)[0];\r\n    require(estimatedAmount < etherAmount, \"Transaction reverted: Insufficient Tokens to get ETH\");\r\n    _uniswapRouter.swapTokensForExactETH(tokenAmount, etherAmount, getPathForTKtoETH(tokenAddress), to, deadline);\r\n  }\r\n  \r\n  function getEstimatedETHforTK(address tokenAddress, uint tokenAmount) public view returns (uint[] memory) {\r\n    return _uniswapRouter.getAmountsIn(tokenAmount, getPathForETHtoTK(tokenAddress));\r\n  }\r\n\r\n  function getEstimatedTKforETH(address tokenAddress, uint etherAmount) public view returns (uint[] memory) {\r\n    return _uniswapRouter.getAmountsIn(etherAmount, getPathForTKtoETH(tokenAddress));\r\n  }\r\n\r\n  function getPathForETHtoTK(address tokenAddress) private view returns (address[] memory) {\r\n    address[] memory path = new address[](2);\r\n    path[0] = _uniswapRouter.WETH();\r\n    path[1] = tokenAddress;  \r\n    return path;\r\n  }\r\n\r\n  function getPathForTKtoETH(address tokenAddress) private view returns (address[] memory) {\r\n    address[] memory path = new address[](2);\r\n    path[0] = tokenAddress;\r\n    path[1] = _uniswapRouter.WETH();\r\n    return path;\r\n  }\r\n  \r\n  // important to receive ETH\r\n  receive() payable external {}\r\n}",
  "sourcePath": "E:/work/uniswap-test/contracts/Trader.sol",
  "compiler": {
    "name": "solc",
    "version": "0.6.2+commit.bacdbe57.Emscripten.clang"
  },
  "schemaVersion": "3.4.1",
  "updatedAt": "2021-06-13T17:18:18.532Z",
  "devdoc": {
    "methods": {}
  },
  "userdoc": {
    "methods": {}
  }
}